:020000040800F2
:1000000058040020490100087B110008591000081D
:100010007911000865050008891400080000000037
:100020000000000000000000000000007F11000838
:1000300067050008000000007D1100081512000887
:100040006301000863010008630100086301000800
:1000500063010008630100086301000863010008F0
:1000600063010008630100086301000863010008E0
:1000700063010008630100086301000863010008D0
:1000800063010008630100086301000863010008C0
:1000900063010008630100086301000863010008B0
:1000A00063010008630100086301000863010008A0
:1000B0006301000863010008630100086301000890
:1000C0006301000863010008630100086301000880
:1000D0006301000863010008630100086301000870
:1000E0006301000863010008630100086301000860
:1000F0006301000863010008630100086301000850
:10010000630100086301000863010008630100083F
:10011000630100086301000863010008630100082F
:10012000630100086301000863010008630100081F
:10013000DFF810D000F004FA00480047511500081D
:10014000AFF3008058040020064880470648004767
:10015000FEE7FEE7FEE7FEE7FEE7FEE7FEE7FEE777
:10016000FEE7FEE75B12000831010008202A04DBED
:10017000203A21FA02F00021704721FA02F3D04020
:10018000C2F120029140084319467047D2B201E003
:1001900000F8012B491EFBD270470022F6E710B58C
:1001A00013460A4604461946FFF7F0FF204610BDE5
:1001B0002DE9FE4F804681EA0300C00F0C460090F7
:1001C00021F0004123F00045B8EB0200A94105D21F
:1001D0004046214690461C460B46024623F000400E
:1001E000104347D0270DC7F30A00C3F30A5102900A
:1001F000401A019040286BDAC3F3130040F4801BCF
:100200000098924620B10023D2EB030A63EB0B0B5C
:1002100001985946C0F14002504600F012F90646D6
:100220000D4650465946019A00F01AF910EB0800A5
:100230006141002487EA115284EAE7731A4340D0EF
:10024000009A62B3019A012A4FEA075215DC001B9B
:1002500061EB02014FF0004202EA0752CDE9004291
:10026000001C41F5801132462B4600F01AF903B00C
:10027000BDE8F08F40462146F9E7001B61EB020123
:10028000001C41F5801300185B412018A2F50017EF
:1002900047EB030140EAD570B6196D4111E06D08D6
:1002A0004FEA360645EAC0754FEA0752001B61EB7C
:1002B0000201001C41F5801149084FEA3000001985
:1002C000514132462B4603B0BDE8F04F00F0DAB89A
:1002D0000098012240000023D0EB020263EBE073A0
:1002E000009821464FEAE074B8EB000061EB04018E
:1002F000E9E783F000435BE781F0004158E72DE92F
:10030000FE4F81EA030404F0004421F00041009410
:100310004FF0000B23F0004350EA01045ED052EA94
:1003200003045BD0C3F30A54C1F30A552C44A4F26E
:10033000F3340194A0FB0254C1F3130141F4801182
:10034000C3F3130343F4801301FB024400FB034E89
:10035000840A970A44EA815447EA8357A4FB076852
:1003600002958D0A05FB07854FEA932C04FB0C547C
:100370002705029D4FEA065847EA1637B5EB0805F0
:100380006EEB070C870E920E47EA811742EA831242
:10039000A7FB0201B6EB0B0164EB00042B0D43EA53
:1003A0000C335E1844EB1C50DA465146E7FB020161
:1003B000C5F313044FEA0B3343EA14534FEA0432F4
:1003C000019C43EA0603A4F10C040294009CCDE9CD
:1003D00000B400F066F803B0BDE8F08F00200146DD
:1003E000F9E70EB5C10F80EAE0700844CA070021A2
:1003F00040F233438DE80E000A460B4600F051F8F8
:1004000003B000BD70B5C1F30A5201F000450024ED
:10041000C1F3130140F2FF3341F480119A4201DA33
:10042000002070BD40F233439A42A2F2334203DC13
:100430005242FFF79BFE00E090402C43F1D0404237
:1004400070BD202A04DB203A00FA02F10020704738
:100450009140C2F1200320FA03F319439040704702
:10046000202A06DBCB17203A41FA02F043EAE07378
:1004700006E041FA02F3D040C2F120029140084365
:100480001946704710B5141E73F1000408DA401CB9
:1004900041F1000192185B411A4301D120F00100A3
:1004A00010BD2DE9F04D92469B4611B1B1FA81F293
:1004B00002E0B0FA80F220329046FFF7C2FF044615
:1004C0000F4640EA0A0041EA0B0153465A460843E8
:1004D00013D0114653EA010019D0C8F1400250462A
:1004E000FFF744FE05460E46504659464246FFF782
:1004F000A8FF084305D0012004E020463946BDE8A6
:10050000F08D0020054346EAE0762C4337430A98F5
:100510006305E40AA0EB08000022FD0A44EA475400
:100520000A3002D500200146E9E7010510196941AA
:10053000DDE9084500196941BDE8F04DA2E700007A
:10054000064C074D06E0E06840F0010394E8070020
:1005500098471034AC42F6D3FFF7EEFD7016000852
:1005600090160008FEE770477047000070B504461B
:1005700000F010F90546601C02D0044800780444DD
:1005800000F008F9401BA042FAD370BD0000002023
:100590002DE9F84FDFF8C891002409F1040A0AF1A7
:1005A000040B23460F270BF1040ED1E00125A540D3
:1005B00006EA0502AA4276D1DFF8A8C14E68A6EB8A
:1005C0000C0866452BD00DDC032E34D005DC36B389
:1005D000012E19D0022E2FD11BE0112E16D0122E73
:1005E0002AD119E0B8F5881F19D006DCB8F5803F8C
:1005F00015D0B8F5801F1FD111E0B8F5001F0ED03F
:10060000B8F5041F18D10AE0CB6815E0CB681B1DB4
:1006100012E0CB6808330FE0CB680C330CE08B683A
:100620002BB1012B4FF0080303D0456104E00423F4
:1006300002E0056100E00023FF2A01D8064601E040
:1006400000F104064FEA840501D9A5F12005D6F88A
:10065000008007FA05FC28EA0C0803FA05F548EAC9
:100660000508C6F800804D68ED0070D53E4DAE69B6
:1006700046F00106AE61AD6924F0030605F0010500
:1006800000953A4D06EB050CDCF80850A607360F2E
:1006900007FA06F825EA0805DFF8D480404503D1BB
:1006A0004FF0000825E052E0DFF8C880404502D155
:1006B0004FF001081DE0DFF8C080404502D14FF047
:1006C000020816E0DFF8B480404502D14FF003087D
:1006D0000FE0DFF8AC80404502D14FF0040808E09D
:1006E000DFF8A080404502D14FF0050801E04FF04F
:1006F000060808FA06F848EA0508CCF808804D68AC
:10070000D9F80060ED034D4601D5164300E096434D
:100710002E604D68DAF80060AD03554601D51643EA
:1007200000E096432E604D68DBF80060ED025D4608
:1007300001D5164300E096432E604D68DEF8006058
:10074000AD02754601D5164300E096432E60641C49
:100750000A681646E2407FF429AFBDE8F88F000032
:100760000004014000001110001002400000014090
:1007700000080140000C014000100140001401403D
:1007800000180140001C01400AB1016170470904D2
:10079000FBE700000148806870470000000000206F
:1007A000024881680278114481607047000000208F
:1007B000074810B5016841F010010160032000F006
:1007C00067F8002000F006F800F024F8002010BDC3
:1007D0000020024070B50D4D04464FF47A71287820
:1007E000B1FBF0F00A490968B1FBF0F000F0BEFA85
:1007F00048B9102C07D200222146501E00F028F8DC
:1008000000206C6070BD012070BD00000000002061
:100810000C0000200C4808B5816941F0010181619C
:10082000816901F001010091C16941F08051C1610C
:10083000C06900F0805000900448416821F0E061F8
:1008400041F00071416008BD00100240000001400D
:10085000F0B40E4B1B680C46C3F30223C3F107052B
:10086000042D00D90425191D072901D2002300E019
:10087000DB1E012606FA05F1491E214099409E40E3
:10088000761E16403143F0BC00F0FFBD0CED00E0D9
:10089000064900F0070208684FF6FF03184040EAD7
:1008A0000220034A10430860704700000CED00E08E
:1008B0000000FA052DE9F0470F46050061D0434ED0
:1008C000306800F00700B84209D2306820F0070015
:1008D00038433060306800F00700B84251D12868D2
:1008E0003B4C810712D5400703D5606840F4E060B7
:1008F00060602878000703D5606840F4605060604D
:100900006068A96820F0F000084360602878C0079C
:1009100028D06868012810D02168022810D08907E3
:1009200000292EDA616821F0030101436160FFF7BD
:1009300031FF804641F288390DE021688903EFE7F5
:100940008901EDE7FFF726FFA0EB0801494502D931
:100950000320BDE8F0876068696800F00C00B0EB28
:10096000810FEFD1306800F00700B8420BD9306832
:1009700020F0070038433060306800F00700B842CC
:1009800001D00120E5E72878400705D56068E968CF
:1009900020F4E060084360602878000706D56068AE
:1009A000296920F4605040EAC100606000F018F846
:1009B0006168084AC1F30311515CC84006490860E8
:1009C00006480068FFF706FF0020C2E7002002404B
:1009D00000100240601600080C00002004000020F7
:1009E00012A185B00FC98DE80F0014A0144A006849
:1009F00004905168134801F00C03042B10D0082B0D
:100A00000ED1C1F38343C9031DF803000AD5516811
:100A100004AAC1F34041515C0A4A5043B0FBF1F0D3
:100A200005B0704708494843FAE70000020304058F
:100A3000060708090A0B0C0D0E0F1010010200002A
:100A40000010024000127A0000093D002DE9F84F25
:100A5000040070D02078C04DC00749D06868C0F34A
:100A60008100012807D06868C0F38100022809D1FD
:100A70006868C00306D52868800339D560680028F7
:100A8000E7D035E06068B0F5803F0BD010B1B0F52D
:100A9000A02F11D0286820F480302860286820F426
:100AA000802002E0286840F480302860606890B1BF
:100AB000FFF770FE06460AE0286840F480202860B0
:100AC000F0E700BFFFF766FE801B642873D8286834
:100AD0008003F7D50CE0FFF75DFE064605E000BF9A
:100AE000FFF758FE801B6428F0D828688003F7D4ED
:100AF00020789A4E80074FF001094FF0000839D551
:100B0000686810F00C0F07D06868C0F381000228F5
:100B100009D16868C00306D42868800714D5206905
:100B2000012808D110E02069B0B1C6F80090FFF7A5
:100B300031FE074605E00AE1FFF72CFEC01B022844
:100B4000C4D828688007F7D52868616920F0F800C4
:100B500040EAC10028600DE0C6F80080FFF71AFEE9
:100B6000074604E0FFF716FEC01B022823D82868BA
:100B70008007F7D4207800072CD57948A169D9B12E
:100B8000C0F80090FFF706FE074604E0FFF702FEFC
:100B9000C01B02280FD8686A8007F7D571484FF448
:100BA000FA510068B0FBF1F0009000BF0098411EC0
:100BB0000091FAD20EE080E0C0F80080FFF7EAFD75
:100BC000074604E0FFF7E6FDC01B022875D8686AF7
:100BD0008007F7D42078400760D5E8690027C00077
:100BE00008D4E86940F08050E861E869012700F026
:100BF000805000905C480168C90513D401688346A1
:100C000041F480710160FFF7C5FD824606E000BF38
:100C1000FFF7C0FDA0EB0A0064284ED8DBF8000007
:100C2000C005F5D5E06801280AD008B1052813D021
:100C3000286A20F001002862286A20F0040002E0FF
:100C4000286A40F001002862E06841F2883B98B1D0
:100C5000FFF7A0FD82460BE0286A40F004002862FE
:100C6000EEE700BFFFF796FDA0EB0A0159455AD801
:100C7000286A8007F6D50CE0FFF78CFD824605E078
:100C8000FFF788FDA0EB0A0159454CD8286A800778
:100C9000F6D41FB1E86920F08050E861E06988B3BC
:100CA0006968C1F38101022944D00228C6F8608036
:100CB00004D0FFF76FFD044638E034E0FFF76AFD2B
:100CC000074604E0FFF766FDC01B02282BD8286802
:100CD0008001F7D4206AB0F5803F05D16868A1682B
:100CE00020F4003008436860D4E9080108436968CB
:100CF00021F4741108436860C6F86090FFF74AFD5C
:100D0000044606E025E000BFFFF744FD001B022873
:100D100009D828688001F7D51BE000BFFFF73AFD2E
:100D2000001B022802D90320BDE8F88F2868800143
:100D3000F4D40EE00128F7D06868226A00F480310C
:100D4000914204D1616A00F47010884201D0012000
:100D5000EAE70020E8E700000010024000004242FD
:100D6000800442420C0000200070004010B5401E7C
:100D7000B0F1807F01D3012010BD4FF0E02460610D
:100D80000F21601700F081FB0020A0610720206187
:100D9000002010BD70B590F83C20012A2CD0012411
:100DA00080F83C40022280F83D2003685A689D6824
:100DB00022F070060A6832435A60104B02689A4269
:100DC0000ED00F4B9A420BD0B2F1804F08D00D4B92
:100DD0009A4205D00C4B9A4202D00C4B9A4204D155
:100DE000496825F080031943916080F83D40002157
:100DF00080F83C10084670BD022070BD002C0140F8
:100E0000003401400004004000080040000C004095
:100E100000B585B000210091019102910391006815
:100E20000B49884212D10B48816941F00801816168
:100E30008069694600F0080004904FF4407000900B
:100E40000220019003900448FFF7A2FB05B000BD0B
:100E50000008004000100240000C014070B504463C
:100E600090F83C000D4601280AD0012084F83C008F
:100E700042B1042A18D0082A2AD00C2A4DD139E0D0
:100E8000022070BD206800F03DFA2068816941F0C1
:100E9000080181612068816921F004018161206875
:100EA00081692A69114311E0206800F05BFA20682B
:100EB000816941F4006181612068816921F4806168
:100EC0008161206881692A6941EA0221816124E007
:100ED000206800F07DFA2068C16941F00801C16115
:100EE0002068C16921F00401C1612068C1692A69D3
:100EF000114311E0206800F09FFA2068C16941F4B5
:100F00000061C1612068C16921F48061C16120680C
:100F1000C1692A6941EA0221C161002084F83C00CC
:100F200070BD10B5040003D094F83D0010B107E087
:100F3000012010BD002084F83C00204600F01EF87F
:100F4000022084F83D00211D206800F087F901206F
:100F500084F8460084F83E0084F83F0084F840009E
:100F600084F8410084F8420084F8430084F8440087
:100F700084F8450084F83D00002010BD08B50068E5
:100F80000649884208D10648C16941F00401C1619F
:100F9000C06900F00400009008BD00000008004097
:100FA0000010024010B50446022249B104290ED0B7
:100FB000082913D094F84100012816D0012010BD53
:100FC00094F83E000128F9D184F83E200FE094F80F
:100FD0003F000128F2D184F83F2008E094F8400057
:100FE0000128EBD184F8402001E084F8412001225F
:100FF000206800F079F913492068134A884201D02B
:10100000904203D1436C43F4004343642068884218
:101010000DD090420BD0B0F1804F08D00B498842E0
:1010200005D00B49884202D00A49884204D1816820
:1010300001F00701062903D0016841F001010160B8
:10104000002010BD002C014000340140000400408D
:1010500000080040000C0040FEE700002DE9F041D0
:1010600086B000242048009401940294039481697E
:1010700041F020018161816901F0200104918169C1
:1010800041F004018161816901F0040104918169E9
:1010900041F0080181618069144F00F0080004905C
:1010A000002210213846FFF76FFBDFF84480002252
:1010B00080214046FFF768FB102001250226CDE97C
:1010C0000005CDE9024669463846FFF761FA8020FF
:1010D000CDE90005CDE9024669464046FFF758FADA
:1010E00006B0BDE8F0810000001002400008014099
:1010F000000C014010B58AB0002407941C216846FA
:101100000894FFF74AF81B48194901604721C0E9D4
:10111000011443F2C721C0E9031480218161FFF764
:1011200000FF08B1FFF720FA079407A911480894B7
:10113000FFF730FE08B1FFF717FA7020CDE9000481
:101140000294082269460B480494FFF787FE08B111
:10115000FFF70AFA0C2269460648FFF77FFE08B13E
:10116000FFF702FA0348FFF753FE0AB010BD000074
:101170000008004010000020FEE7704770477047ED
:1011800070B50C460546642901DB642404E06FF069
:101190006300844200DC04462046FFF722F921F078
:1011A00000410022164BFFF7AAF80022154BFFF76B
:1011B000A3F8FFF727F901B21348006845B1012DE4
:1011C0001CD101641148002C0FDD4FF001020FE02B
:1011D000C1630F48002C02DD4FF0000202E00DDA7F
:1011E0004FF001024FF0100104E007DA4FF0000267
:1011F0004FF08001BDE87040FFF7C6BA70BD000037
:10120000000052400021BC4010000020000C0140B2
:1012100000080140FFF7C4BA10B590B02821684615
:10122000FEF7BBFF14210AA8FEF7B7FF02200090CB
:101230000120049010200024059007946846FFF7D1
:1012400005FC0F20CDE90A040C940D9400210AA896
:101250000E94FFF72FFB10B010BD7047F0B5026879
:101260001C4B1D4D1D4E1E4F1E4C4FF0804C984286
:1012700009D0A04207D0604505D0A84203D0B042B3
:1012800001D0B84204D122F0700E4A6842EA0E0240
:10129000984209D0A04207D0604505D0A84203D0AB
:1012A000B04201D0B84203D122F44075CA682A4343
:1012B0004D6922F080022A4302608A68C2620A688D
:1012C0008262984201D0A04201D1096901630121E3
:1012D0004161F0BD002C01400004004000080040C6
:1012E000000C00400034014010B501F01F03012143
:1012F000046A99408C430462016A9A401143016276
:1013000010BD0000F0B5026A22F001020262036A19
:1013100042688469124E24F073050C682C4323F054
:1013200002058B682B430D4DA84201D0B04205D178
:1013300023F00807CB683B4323F00403A84201D005
:10134000B04205D14D6922F4407215438A692A439F
:1013500042608461496841630362F0BD002C014032
:1013600000340140F0B5026A22F010020262026A03
:10137000436884690D6824F4E64444EA05248D68D2
:1013800022F0200242EA05120F4D104EA84201D071
:10139000B04206D1CF6822F0800242EA071222F062
:1013A0004002A84201D0B04207D14D6923F4406306
:1013B00043EA85038D6943EA850343608461496894
:1013C00081630262F0BD0000002C01400034014046
:1013D000F0B5026A22F480720262026A4368C4694C
:1013E00022F4007224F073050C68124E2C438D68B1
:1013F00042EA05220E4DA84201D0B04206D1CF6884
:1014000022F4006242EA072222F48062A84201D05C
:10141000B04207D14D6923F4405343EA05138D6967
:1014200043EA05134360C4614968C1630262F0BDC9
:10143000002C01400034014030B5026A22F4805291
:101440000262046A4268C3690D6823F4E64343EA12
:1014500005238D6824F4005444EA0534084DA8425D
:1014600002D0084DA84204D14D6922F4804242EADC
:1014700085124260C36149680164046230BD0000A6
:10148000002C014000340140FEE70907090E002846
:1014900004DB00F1E02080F80014704700F00F003A
:1014A00000F1E02080F8141D704702E008C8121F08
:1014B00008C1002AFAD170477047002001E001C13D
:1014C000121F002AFBD1704770B504460D46C0F1CB
:1014D000640041B20120FFF753FE604241B2002098
:1014E000FFF74EFE2846BDE87040FFF73FB800000A
:1014F00010B5044600210120FFF742FE00210846F6
:10150000FFF73EFE002210210648FFF73DF90022BA
:1015100080210548FFF738F92046BDE81040FFF765
:1015200025B8000000080140000C014070B50446D9
:101530000D46604241B20120FFF722FE2146002005
:10154000FFF71EFE2846BDE87040FFF70FB8000009
:10155000FFF72EF9FFF760FEFFF780FDFFF7CAFDEA
:1015600008211C48FFF71EFD0C211A48FFF71AFD41
:101570004FF47A756C1029463220FFF7A5FF2046FC
:10158000FFF7B6FF29463220FFF7D0FF2046FFF7CE
:10159000AFFF2946322000F043F86420FFF7A8FF90
:1015A0002946322000F04CF86420FFF7A1FF2946BD
:1015B000322000F011F86420FFF79AFF294632200C
:1015C00000F01CF82046FFF793FFC820FEF7CEFF7F
:1015D000D1E700001000002070B50D46044601461A
:1015E0000120FFF7CDFDC4F1640041B20020FFF7F8
:1015F000C7FD2846BDE87040FEF7B8BF70B5044689
:101600000D46643841B20120FFF7BAFD604241B295
:101610000020FFF7B5FD2846BDE87040FEF7A6BFE5
:1016200070B50D46044600210120FFF7A9FD2146B3
:101630000020FFF7A5FD2846BDE87040FEF796BFE5
:1016400010B50C46404241B20120FFF799FD002140
:101650000846FFF795FD2046BDE81040FEF786BF1F
:101660000000000000000000010203040607080952
:10167000901600080000002010000000AA140008C6
:10168000A01600081000002048040000BA1400084A
:101690000100000010000000000000000024F40021
:0400000508000131BD
:00000001FF
