:020000040800F2
:10000000580400200501000827110008D10F00083E
:100010002511000821050008E11300080000000078
:100020000000000000000000000000002B1100088C
:10003000230500080000000029110008C111000874
:100040001F0100081F0100081F0100081F01000810
:100050001F0100081F0100081F0100081F01000800
:100060001F0100081F0100081F0100081F010008F0
:100070001F0100081F0100081F0100081F010008E0
:100080001F0100081F0100081F0100081F010008D0
:100090001F0100081F0100081F0100081F010008C0
:1000A0001F0100081F0100081F0100081F010008B0
:1000B0001F0100081F0100081F0100081F010008A0
:1000C0001F0100081F0100081F0100081F01000890
:1000D0001F0100081F0100081F0100081F01000880
:1000E0001F0100081F0100081F010008DFF810D0E1
:1000F00000F004FA0048004745140008AFF3008000
:10010000580400200648804706480047FEE7FEE7FF
:10011000FEE7FEE7FEE7FEE7FEE7FEE7FEE7FEE7B7
:1001200013120008ED000008202A04DB203A21FA0F
:1001300002F00021704721FA02F3D040C2F1200200
:100140009140084319467047D2B201E000F8012BF4
:10015000491EFBD270470022F6E710B513460A4647
:1001600004461946FFF7F0FF204610BD2DE9FE4F6B
:10017000804681EA0300C00F0C46009021F0004148
:1001800023F00045B8EB0200A94105D240462146C4
:1001900090461C460B46024623F00040104347D0D1
:1001A000270DC7F30A00C3F30A510290401A0190C9
:1001B00040286BDAC3F3130040F4801B009892468A
:1001C00020B10023D2EB030A63EB0B0B01985946D5
:1001D000C0F14002504600F012F906460D46504666
:1001E0005946019A00F01AF910EB08006141002409
:1001F00087EA115284EAE7731A4340D0009A62B347
:10020000019A012A4FEA075215DC001B61EB02013B
:100210004FF0004202EA0752CDE90042001C41F5CE
:10022000801132462B4600F01AF903B0BDE8F08F7A
:1002300040462146F9E7001B61EB0201001C41F535
:10024000801300185B412018A2F5001747EB03014B
:1002500040EAD570B6196D4111E06D084FEA3606D7
:1002600045EAC0754FEA0752001B61EB0201001C12
:1002700041F5801149084FEA3000001951413246DA
:100280002B4603B0BDE8F04F00F0DAB80098012229
:1002900040000023D0EB020263EBE073009821469C
:1002A0004FEAE074B8EB000061EB0401E9E783F08A
:1002B00000435BE781F0004158E72DE9FE4F81EAFA
:1002C000030404F0004421F0004100944FF0000BBF
:1002D00023F0004350EA01045ED052EA03045BD0ED
:1002E000C3F30A54C1F30A552C44A4F2F334019425
:1002F000A0FB0254C1F3130141F48011C3F31303B3
:1003000043F4801301FB024400FB034E840A970A66
:1003100044EA815447EA8357A4FB076802958D0A93
:1003200005FB07854FEA932C04FB0C542705029D1F
:100330004FEA065847EA1637B5EB08056EEB070C8F
:10034000870E920E47EA811742EA8312A7FB020149
:10035000B6EB0B0164EB00042B0D43EA0C335E1883
:1003600044EB1C50DA465146E7FB0201C5F3130487
:100370004FEA0B3343EA14534FEA0432019C43EA39
:100380000603A4F10C040294009CCDE900B400F033
:1003900066F803B0BDE8F08F00200146F9E70EB51E
:1003A000C10F80EAE0700844CA07002140F23343DD
:1003B0008DE80E000A460B4600F051F803B000BD70
:1003C00070B5C1F30A5201F000450024C1F31301D6
:1003D00040F2FF3341F480119A4201DA002070BDEF
:1003E00040F233439A42A2F2334203DC5242FFF717
:1003F0009BFE00E090402C43F1D0404270BD202A8B
:1004000004DB203A00FA02F1002070479140C2F16B
:10041000200320FA03F3194390407047202A06DB9B
:10042000CB17203A41FA02F043EAE07306E041FAC2
:1004300002F3D040C2F120029140084319467047B0
:1004400010B5141E73F1000408DA401C41F10001DC
:1004500092185B411A4301D120F0010010BD2DE933
:10046000F04D92469B4611B1B1FA81F202E0B0FA2A
:1004700080F220329046FFF7C2FF04460F4640EA62
:100480000A0041EA0B0153465A46084313D011466D
:1004900053EA010019D0C8F140025046FFF744FE6C
:1004A00005460E46504659464246FFF7A8FF084308
:1004B00005D0012004E020463946BDE8F08D00203B
:1004C000054346EAE0762C4337430A986305E40A7D
:1004D000A0EB08000022FD0A44EA47540A3002D586
:1004E00000200146E9E7010510196941DDE90845E9
:1004F00000196941BDE8F04DA2E70000064C074D28
:1005000006E0E06840F0010394E8070098471034E3
:10051000AC42F6D3FFF7EEFD9C140008BC140008B3
:10052000FEE770477047000070B5044600F004F91C
:100530000546601C02D004480078044400F0FCF832
:10054000401BA042FAD370BD000000202DE9F84FF7
:10055000DFF8B891002409F1040A0AF1040B2346DC
:100560000F270BF1040EC9E00125A5402A40AA423D
:100570007DD1674ED1F804C0ACEB0608B44532D04B
:1005800014DCBCF1030F3AD009DCBCF1000F2AD017
:10059000BCF1010F1CD0BCF1020F31D11DE0BCF148
:1005A000110F17D0BCF1120F2AD119E0B8F5881F2E
:1005B00019D006DCB8F5803F15D0B8F5801F1FD1E3
:1005C00011E0B8F5001F0ED0B8F5041F18D10AE0ED
:1005D000CB6815E0CB681B1D12E0CB6808330FE039
:1005E000CB680C330CE08B682BB1012B4FF0080368
:1005F00003D0456104E0042302E0056100E000232C
:10060000FF2A01D8064601E000F104064FEA8405FE
:1006100001D9A5F12005D6F8008007FA05FC28EAE3
:100620000C0803FA05F548EA0508C6F800804D688D
:10063000ED0062D5374DAE6946F00106AE61AD6999
:1006400024F0030605F001050095334D06EB050C7B
:10065000DCF80850A607360F07FA06F825EA080561
:10066000DFF8B880404503D14FF0000817E044E0C0
:10067000DFF8AC80404502D14FF001080FE0DFF811
:10068000A480404502D14FF0020808E0DFF89880CE
:10069000404502D14FF0030801E04FF0040808FA8A
:1006A00006F848EA0508CCF808804D68D9F80060DB
:1006B000ED034D4601D5164300E096432E604D688C
:1006C000DAF80060AD03554601D5164300E09643C5
:1006D0002E604D68DBF80060ED025D4601D51643E3
:1006E00000E096432E604D68DEF80060AD0275466E
:1006F00001D5164300E096432E60641C0D682A461F
:10070000E5407FF431AFBDE8F88F00000004014000
:1007100000001110001002400000014000080140DC
:10072000000C014000100140001401400AB10161B9
:1007300070470904FBE7000001488068704700002B
:1007400000000020024881680278114481607047EF
:1007500000000020074810B5016841F01001016059
:10076000032000F067F8002000F006F800F024F8FD
:10077000002010BD0020024070B50D4D04464FF41E
:100780007A712878B1FBF0F00A490968B1FBF0F002
:1007900000F0BEFA48B9102C07D200222146501EA4
:1007A00000F028F800206C6070BD012070BD0000D2
:1007B000000000200C0000200C4808B5816941F0C1
:1007C00001018161816901F001010091C16941F07C
:1007D0008051C161C06900F08050009004484168B8
:1007E00021F0E06141F00071416008BD001002405D
:1007F00000000140F0B40E4B1B680C46C3F302230B
:10080000C3F10705042D00D90425191D072901D2BC
:10081000002300E0DB1E012606FA05F1491E2140F7
:1008200099409E40761E16403143F0BC00F0D9BD81
:100830000CED00E0064900F0070208684FF6FF03E0
:10084000184040EA0220034A104308607047000045
:100850000CED00E00000FA052DE9F0470F46050019
:1008600061D0434E306800F00700B84209D23068CA
:1008700020F0070038433060306800F00700B842CD
:1008800051D128683B4C810712D5400703D56068D9
:1008900040F4E06060602878000703D5606840F4A9
:1008A000605060606068A96820F0F00008436060F4
:1008B0002878C00728D06868012810D0216802284D
:1008C00010D0890700292EDA616821F00301014365
:1008D0006160FFF731FF804641F288390DE0216801
:1008E0008903EFE78901EDE7FFF726FFA0EB080199
:1008F000494502D90320BDE8F0876068696800F0C7
:100900000C00B0EB810FEFD1306800F00700B84267
:100910000BD9306820F0070038433060306800F0B1
:100920000700B84201D00120E5E72878400705D547
:100930006068E96820F4E060084360602878000798
:1009400006D56068296920F4605040EAC100606003
:1009500000F018F86168084AC1F30311515CC840FF
:100960000649086006480068FFF706FF0020C2E756
:1009700000200240001002408C1400080C000020EF
:100980000400002012A185B00FC98DE80F0014A04B
:10099000144A006804905168134801F00C03042BBA
:1009A00010D0082B0ED1C1F38343C9031DF80300F7
:1009B0000AD5516804AAC1F34041515C0A4A504328
:1009C000B0FBF1F005B0704708494843FAE7000072
:1009D00002030405060708090A0B0C0D0E0F101080
:1009E000010200000010024000127A0000093D00E0
:1009F0002DE9F84F040070D02078C04DC00749D0D1
:100A00006868C0F38100012807D06868C0F38100DE
:100A1000022809D16868C00306D52868800339D543
:100A200060680028E7D035E06068B0F5803F0BD003
:100A300010B1B0F5A02F11D0286820F480302860C4
:100A4000286820F4802002E0286840F48030286084
:100A5000606890B1FFF770FE06460AE0286840F42F
:100A600080202860F0E700BFFFF766FE801B642847
:100A700073D828688003F7D50CE0FFF75DFE0646C3
:100A800005E000BFFFF758FE801B6428F0D82868F7
:100A90008003F7D420789A4E80074FF001094FF079
:100AA000000839D5686810F00C0F07D06868C0F3EB
:100AB0008100022809D16868C00306D4286880072D
:100AC00014D52069012808D110E02069B0B1C6F81A
:100AD0000090FFF731FE074605E00AE1FFF72CFE24
:100AE000C01B0228C4D828688007F7D52868616928
:100AF00020F0F80040EAC10028600DE0C6F8008050
:100B0000FFF71AFE074604E0FFF716FEC01B022897
:100B100023D828688007F7D4207800072CD5794897
:100B2000A169D9B1C0F80090FFF706FE074604E0BE
:100B3000FFF702FEC01B02280FD8686A8007F7D5AE
:100B400071484FF4FA510068B0FBF1F0009000BF1B
:100B50000098411E0091FAD20EE080E0C0F80080BB
:100B6000FFF7EAFD074604E0FFF7E6FDC01B022899
:100B700075D8686A8007F7D42078400760D5E8699F
:100B80000027C00008D4E86940F08050E861E869B7
:100B9000012700F0805000905C480168C90513D41B
:100BA0000168834641F480710160FFF7C5FD82460C
:100BB00006E000BFFFF7C0FDA0EB0A0064284ED896
:100BC000DBF80000C005F5D5E06801280AD008B1BF
:100BD000052813D0286A20F001002862286A20F036
:100BE000040002E0286A40F001002862E06841F257
:100BF000883B98B1FFF7A0FD82460BE0286A40F0E1
:100C000004002862EEE700BFFFF796FDA0EB0A01A3
:100C100059455AD8286A8007F6D50CE0FFF78CFDB5
:100C2000824605E0FFF788FDA0EB0A0159454CD844
:100C3000286A8007F6D41FB1E86920F08050E86187
:100C4000E06988B36968C1F38101022944D00228B0
:100C5000C6F8608004D0FFF76FFD044638E034E04A
:100C6000FFF76AFD074604E0FFF766FDC01B022898
:100C70002BD828688001F7D4206AB0F5803F05D1D1
:100C80006868A16820F4003008436860D4E908016E
:100C90000843696821F4741108436860C6F86090DD
:100CA000FFF74AFD044606E025E000BFFFF744FDDC
:100CB000001B022809D828688001F7D51BE000BF77
:100CC000FFF73AFD001B022802D90320BDE8F88F88
:100CD00028688001F4D40EE00128F7D06868226A01
:100CE00000F48031914204D1616A00F470108842AE
:100CF00001D00120EAE70020E8E7000000100240F0
:100D000000004242800442420C000020007000407B
:100D100010B5401EB0F1807F01D3012010BD4FF00F
:100D2000E02460610F21601700F05BFB0020A061F0
:100D300007202061002010BD70B590F83C20012AEA
:100D400026D0012480F83C40022280F83D20036830
:100D50005A689D6822F070060A6832435A600D4B4B
:100D600002689A4208D0B2F1804F05D00A4B9A42ED
:100D700002D00A4B9A4204D1496825F080031943F6
:100D8000916080F83D40002180F83C10084670BD1D
:100D9000022070BD002C014000040040000800400B
:100DA00000B585B000210091019102910391006886
:100DB0000B49884212D10B48816941F008018161D9
:100DC0008069694600F0080004904FF4407000907C
:100DD0000220019003900448FFF7B8FB05B000BD66
:100DE0000008004000100240000C014070B50446AD
:100DF00090F83C000D4601280AD0012084F83C0000
:100E000042B1042A18D0082A2AD00C2A4DD139E040
:100E1000022070BD206800F041FA2068816941F02D
:100E2000080181612068816921F0040181612068E5
:100E300081692A69114311E0206800F057FA20689F
:100E4000816941F4006181612068816921F48061D8
:100E50008161206881692A6941EA0221816124E077
:100E6000206800F06FFA2068C16941F00801C16193
:100E70002068C16921F00401C1612068C1692A6943
:100E8000114311E0206800F089FA2068C16941F43B
:100E90000061C1612068C16921F48061C16120687D
:100EA000C1692A6941EA0221C161002084F83C003D
:100EB00070BD10B5040003D094F83D0010B107E0F8
:100EC000012010BD002084F83C00204600F01EF8F0
:100ED000022084F83D00211D206800F09BF90120CC
:100EE00084F8460084F83E0084F83F0084F840000F
:100EF00084F8410084F8420084F8430084F84400F8
:100F000084F8450084F83D00002010BD08B5006855
:100F10000649884208D10648C16941F00401C1610F
:100F2000C06900F00400009008BD00000008004007
:100F30000010024010B50446022249B104290ED027
:100F4000082913D094F84100012816D0012010BDC3
:100F500094F83E000128F9D184F83E200FE094F87F
:100F60003F000128F2D184F83F2008E094F84000C7
:100F70000128EBD184F8402001E084F841200122CF
:100F8000206800F07DF90F492068884203D1426C47
:100F900042F4004242642068884208D0B0F1804F99
:100FA00005D00949884202D00849884204D18168A5
:100FB00001F00701062903D0016841F00101016039
:100FC000002010BD002C014000040040000800403B
:100FD000FEE700002DE9F04385B000242C48009482
:100FE000019402940394816941F010018161816947
:100FF00001F010010491816941F020018161816952
:1010000001F020010491816941F00401816181694D
:1010100001F004010491816941F008018161806956
:101020001C4F00F008004FF40055049000222946A0
:101030003846FFF77BFBDFF8608000221021404636
:10104000FFF774FBDFF85490002280214846FFF739
:101050006DFB0095022601250396CDE901546946F2
:101060003846FFF773FA1020CDE90005CDE90246B6
:1010700069464046FFF76AFA8020CDE90005CDE9D0
:10108000024669464846FFF761FA05B0BDE8F083BD
:10109000001002400010014000080140000C014017
:1010A00010B58AB0002407941C2168460894FFF705
:1010B00052F81B48194901600121C0E9011440F6AA
:1010C0000F61C0E9031480218161FFF7F2FE08B1CE
:1010D000FFF728FA079407A911480894FFF72CFE98
:1010E00008B1FFF71FFA7020CDE90004029408222E
:1010F00069460B480494FFF779FE08B1FFF712FA2E
:101100000C2269460648FFF771FE08B1FFF70AFA9C
:101110000348FFF745FE0AB010BD0000000800407C
:1011200010000020FEE770477047704770B50C460E
:101130000546642901DB642404E06FF06300844207
:1011400000DC04462046FFF72AF921F00041002286
:10115000164BFFF7B2F80022154BFFF7ABF8FFF77D
:101160002FF901B21348006845B1012D1CD101646B
:101170001148002C0FDD4FF001020FE0C1630F4852
:10118000002C02DD4FF0000202E00DDA4FF0010208
:101190004FF0100104E007DA4FF000024FF0800139
:1011A000BDE87040FFF7C2BA70BD000000004240C9
:1011B000001EAC4010000020000C0140000801405F
:1011C000FFF7C0BA30B58FB028216846FEF7C3FFDD
:1011D00014210AA8FEF7BFFF01210804CDE9001081
:1011E0000024029402250491CDE907504FF4E01049
:1011F00009906846FFF7FCFB0F20CDE90A0568025D
:10120000CDE90C4002210AA80E94FFF725FB0FB090
:1012100030BD7047F0B50268164B174C174D4FF0B4
:101220008047984205D0B84203D0A04201D0A842DE
:1012300003D122F070064A683243984205D0B84282
:1012400003D0A04201D0A84203D122F44074CA685E
:1012500022434C6922F08002224302608A68C26203
:101260000A688262984201D10969016301214161E2
:10127000F0BD0000002C01400004004000080040C8
:1012800010B501F01F030121046A99408C430462E8
:10129000016A9A401143016210BD000030B5026A34
:1012A00022F001020262026A4368846924F0730535
:1012B0000C682C4322F002058A682A430A4DA84292
:1012C0000BD122F00805CA6823F440732A434D6904
:1012D00022F004021D438B692B43436084614968FB
:1012E0004163026230BD0000002C014030B5026A4B
:1012F00022F010020262026A436884690D6824F4D5
:10130000E64444EA05248D6822F0200242EA0512F0
:101310000B4DA8420ED1CD6822F0800242EA0512A0
:101320004D6923F4406343EA85038D6922F040024E
:1013300043EA85034360846149688163026230BD8A
:10134000002C014030B5026A22F480720262036A06
:101350004268C46923F4007324F073050C682C43BD
:101360008D6843EA05230C4DA8420ED1CD6823F4C5
:10137000006343EA05234D6922F4405242EA051214
:101380008D6923F4806342EA05124260C4614968B2
:10139000C163036230BD0000002C014030B5026A19
:1013A00022F480520262046A4268C3690D6823F421
:1013B000E64343EA05238D6824F4005444EA0534E7
:1013C000064DA84204D14D6922F4804242EA8512BA
:1013D0004260C36149680164046230BD002C014071
:1013E000FEE70907090E002804DB00F1E02080F881
:1013F0000014704700F00F0000F1E02080F8141D89
:10140000704702E008C8121F08C1002AFAD17047CD
:101410007047002001E001C1121F002AFBD1704774
:1014200070B504460D46604241B20120FFF77EFED2
:1014300021460020FFF77AFE2846BDE87040FFF7FE
:1014400073B80000FFF786F9FFF7BCFEFFF7C2FD97
:10145000FFF726FE08210B48FFF76CFD0C21094819
:10146000FFF768FD084E4FF47A744FF4005521469B
:101470004620FFF7D5FF002229463046FFF756F9F0
:10148000F5E70000100000200010014000000000FF
:10149000000000000102030406070809BC1400084C
:1014A000000000201000000002140008CC14000806
:1014B0001000002048040000121400080100000081
:0C14C00010000000000000000024F400F8
:04000005080000ED02
:00000001FF
